:100000000C9446000C945D000C945D000C945D0013
:100010000C945D000C945D000C945D000C945D00EC
:100020000C945D000C945D000C945D000C945D00DC
:100030000C945D000C945D000C945D000C945D00CC
:100040000C945D000C945D000C945D000C945D00BC
:100050000C945D000C945D000C945D000C945D00AC
:100060000C945D000C945D000C945D000C945D009C
:100070000C945D000C945D000C945D000C945D008C
:100080000C945D000C945D000C945D0011241FBE67
:10009000CFEFD0E1DEBFCDBF11E0A0E0B1E0E8E1FD
:1000A000F1E000E00BBF02C007900D92AA30B1074B
:1000B000D9F70E9463000C948A000C9400008FEF23
:1000C00087BB82B908950E945F0080E091E0E0E084
:1000D000F1E0219123B92FEF39E648E1215030407A
:1000E0004040E1F700C0000021E0EA30F20789F764
:1000F000E9E0F1E0208123B93FEF49E628E1315002
:1001000040402040E1F700C0000031978E179F0764
:0801100089F7DDCFF894FFCF61
:0A011800001020304050607080900D
:00000001FF
